{
  "_format": "hh-sol-artifact-1",
  "contractName": "ERC20TransferTax",
  "sourceName": "contracts/ERC20/ERC20TransferTax.sol",
  "abi": [
    {
      "inputs": [
        {
          "internalType": "string",
          "name": "name_",
          "type": "string"
        },
        {
          "internalType": "string",
          "name": "symbol_",
          "type": "string"
        },
        {
          "internalType": "uint256",
          "name": "amount",
          "type": "uint256"
        },
        {
          "internalType": "address",
          "name": "taxMan_",
          "type": "address"
        },
        {
          "internalType": "uint256",
          "name": "taxBips_",
          "type": "uint256"
        }
      ],
      "stateMutability": "nonpayable",
      "type": "constructor"
    },
    {
      "anonymous": false,
      "inputs": [
        {
          "indexed": true,
          "internalType": "address",
          "name": "owner",
          "type": "address"
        },
        {
          "indexed": true,
          "internalType": "address",
          "name": "spender",
          "type": "address"
        },
        {
          "indexed": false,
          "internalType": "uint256",
          "name": "value",
          "type": "uint256"
        }
      ],
      "name": "Approval",
      "type": "event"
    },
    {
      "anonymous": false,
      "inputs": [
        {
          "indexed": true,
          "internalType": "address",
          "name": "from",
          "type": "address"
        },
        {
          "indexed": true,
          "internalType": "address",
          "name": "to",
          "type": "address"
        },
        {
          "indexed": false,
          "internalType": "uint256",
          "name": "value",
          "type": "uint256"
        }
      ],
      "name": "Transfer",
      "type": "event"
    },
    {
      "inputs": [
        {
          "internalType": "address",
          "name": "owner",
          "type": "address"
        },
        {
          "internalType": "address",
          "name": "spender",
          "type": "address"
        }
      ],
      "name": "allowance",
      "outputs": [
        {
          "internalType": "uint256",
          "name": "",
          "type": "uint256"
        }
      ],
      "stateMutability": "view",
      "type": "function"
    },
    {
      "inputs": [
        {
          "internalType": "address",
          "name": "spender",
          "type": "address"
        },
        {
          "internalType": "uint256",
          "name": "amount",
          "type": "uint256"
        }
      ],
      "name": "approve",
      "outputs": [
        {
          "internalType": "bool",
          "name": "",
          "type": "bool"
        }
      ],
      "stateMutability": "nonpayable",
      "type": "function"
    },
    {
      "inputs": [
        {
          "internalType": "address",
          "name": "account",
          "type": "address"
        }
      ],
      "name": "balanceOf",
      "outputs": [
        {
          "internalType": "uint256",
          "name": "",
          "type": "uint256"
        }
      ],
      "stateMutability": "view",
      "type": "function"
    },
    {
      "inputs": [],
      "name": "decimals",
      "outputs": [
        {
          "internalType": "uint8",
          "name": "",
          "type": "uint8"
        }
      ],
      "stateMutability": "view",
      "type": "function"
    },
    {
      "inputs": [
        {
          "internalType": "address",
          "name": "spender",
          "type": "address"
        },
        {
          "internalType": "uint256",
          "name": "subtractedValue",
          "type": "uint256"
        }
      ],
      "name": "decreaseAllowance",
      "outputs": [
        {
          "internalType": "bool",
          "name": "",
          "type": "bool"
        }
      ],
      "stateMutability": "nonpayable",
      "type": "function"
    },
    {
      "inputs": [
        {
          "internalType": "address",
          "name": "spender",
          "type": "address"
        },
        {
          "internalType": "uint256",
          "name": "addedValue",
          "type": "uint256"
        }
      ],
      "name": "increaseAllowance",
      "outputs": [
        {
          "internalType": "bool",
          "name": "",
          "type": "bool"
        }
      ],
      "stateMutability": "nonpayable",
      "type": "function"
    },
    {
      "inputs": [
        {
          "internalType": "address",
          "name": "",
          "type": "address"
        }
      ],
      "name": "isNotTaxed",
      "outputs": [
        {
          "internalType": "bool",
          "name": "",
          "type": "bool"
        }
      ],
      "stateMutability": "view",
      "type": "function"
    },
    {
      "inputs": [],
      "name": "name",
      "outputs": [
        {
          "internalType": "string",
          "name": "",
          "type": "string"
        }
      ],
      "stateMutability": "view",
      "type": "function"
    },
    {
      "inputs": [
        {
          "internalType": "address",
          "name": "account",
          "type": "address"
        },
        {
          "internalType": "bool",
          "name": "isTaxed_",
          "type": "bool"
        }
      ],
      "name": "setIsTaxed",
      "outputs": [],
      "stateMutability": "nonpayable",
      "type": "function"
    },
    {
      "inputs": [],
      "name": "symbol",
      "outputs": [
        {
          "internalType": "string",
          "name": "",
          "type": "string"
        }
      ],
      "stateMutability": "view",
      "type": "function"
    },
    {
      "inputs": [],
      "name": "taxBips",
      "outputs": [
        {
          "internalType": "uint256",
          "name": "",
          "type": "uint256"
        }
      ],
      "stateMutability": "view",
      "type": "function"
    },
    {
      "inputs": [],
      "name": "taxMan",
      "outputs": [
        {
          "internalType": "address",
          "name": "",
          "type": "address"
        }
      ],
      "stateMutability": "view",
      "type": "function"
    },
    {
      "inputs": [],
      "name": "totalSupply",
      "outputs": [
        {
          "internalType": "uint256",
          "name": "",
          "type": "uint256"
        }
      ],
      "stateMutability": "view",
      "type": "function"
    },
    {
      "inputs": [
        {
          "internalType": "address",
          "name": "recipient",
          "type": "address"
        },
        {
          "internalType": "uint256",
          "name": "amount",
          "type": "uint256"
        }
      ],
      "name": "transfer",
      "outputs": [
        {
          "internalType": "bool",
          "name": "",
          "type": "bool"
        }
      ],
      "stateMutability": "nonpayable",
      "type": "function"
    },
    {
      "inputs": [
        {
          "internalType": "address",
          "name": "sender",
          "type": "address"
        },
        {
          "internalType": "address",
          "name": "recipient",
          "type": "address"
        },
        {
          "internalType": "uint256",
          "name": "amount",
          "type": "uint256"
        }
      ],
      "name": "transferFrom",
      "outputs": [
        {
          "internalType": "bool",
          "name": "",
          "type": "bool"
        }
      ],
      "stateMutability": "nonpayable",
      "type": "function"
    },
    {
      "inputs": [
        {
          "internalType": "address",
          "name": "taxMan_",
          "type": "address"
        }
      ],
      "name": "transferTaxman",
      "outputs": [],
      "stateMutability": "nonpayable",
      "type": "function"
    }
  ],
  "bytecode": "0x60806040523480156200001157600080fd5b50604051620013d4380380620013d4833981810160405260a08110156200003757600080fd5b81019080805160405193929190846401000000008211156200005857600080fd5b9083019060208201858111156200006e57600080fd5b82516401000000008111828201881017156200008957600080fd5b82525081516020918201929091019080838360005b83811015620000b85781810151838201526020016200009e565b50505050905090810190601f168015620000e65780820380516001836020036101000a031916815260200191505b50604052602001805160405193929190846401000000008211156200010a57600080fd5b9083019060208201858111156200012057600080fd5b82516401000000008111828201881017156200013b57600080fd5b82525081516020918201929091019080838360005b838110156200016a57818101518382015260200162000150565b50505050905090810190601f168015620001985780820380516001836020036101000a031916815260200191505b506040908152602082810151918301516060909301518751929550929350620001c791600391880190620003ad565b508351620001dd906004906020870190620003ad565b506005805460ff191660121790556200020033846001600160e01b036200022e16565b600780546001600160a01b0319166001600160a01b0393909316929092179091556006555062000452915050565b6001600160a01b0382166200028a576040805162461bcd60e51b815260206004820152601f60248201527f45524332303a206d696e7420746f20746865207a65726f206164647265737300604482015290519081900360640190fd5b620002a1600083836001600160e01b036200034616565b620002bd816002546200034b60201b62000c771790919060201c565b6002556001600160a01b03821660009081526020818152604090912054620002f091839062000c776200034b821b17901c565b6001600160a01b0383166000818152602081815260408083209490945583518581529351929391927fddf252ad1be2c89b69c2b068fc378daa952ba7f163c4a11628f55a4df523b3ef9281900390910190a35050565b505050565b600082820183811015620003a6576040805162461bcd60e51b815260206004820152601b60248201527f536166654d6174683a206164646974696f6e206f766572666c6f770000000000604482015290519081900360640190fd5b9392505050565b828054600181600116156101000203166002900490600052602060002090601f016020900481019282601f10620003f057805160ff191683800117855562000420565b8280016001018555821562000420579182015b828111156200042057825182559160200191906001019062000403565b506200042e92915062000432565b5090565b6200044f91905b808211156200042e576000815560010162000439565b90565b610f7280620004626000396000f3fe608060405234801561001057600080fd5b50600436106101005760003560e01c806395d89b4111610097578063b41e664011610066578063b41e664014610310578063caa24df614610334578063d0852f7e1461035c578063dd62ed3e1461038a57610100565b806395d89b41146102a8578063a457c2d7146102b0578063a7e94c02146102dc578063a9059cbb146102e457610100565b8063313ce567116100d3578063313ce5671461021257806339509351146102305780634692a9621461025c57806370a082311461028257610100565b806306fdde0314610105578063095ea7b31461018257806318160ddd146101c257806323b872dd146101dc575b600080fd5b61010d6103b8565b6040805160208082528351818301528351919283929083019185019080838360005b8381101561014757818101518382015260200161012f565b50505050905090810190601f1680156101745780820380516001836020036101000a031916815260200191505b509250505060405180910390f35b6101ae6004803603604081101561019857600080fd5b506001600160a01b03813516906020013561044e565b604080519115158252519081900360200190f35b6101ca61046c565b60408051918252519081900360200190f35b6101ae600480360360608110156101f257600080fd5b506001600160a01b03813581169160208101359091169060400135610472565b61021a6104ff565b6040805160ff9092168252519081900360200190f35b6101ae6004803603604081101561024657600080fd5b506001600160a01b038135169060200135610508565b6101ae6004803603602081101561027257600080fd5b50356001600160a01b031661055c565b6101ca6004803603602081101561029857600080fd5b50356001600160a01b0316610571565b61010d61058c565b6101ae600480360360408110156102c657600080fd5b506001600160a01b0381351690602001356105ed565b6101ca61065b565b6101ae600480360360408110156102fa57600080fd5b506001600160a01b038135169060200135610661565b610318610675565b604080516001600160a01b039092168252519081900360200190f35b61035a6004803603602081101561034a57600080fd5b50356001600160a01b0316610684565b005b61035a6004803603604081101561037257600080fd5b506001600160a01b03813516906020013515156106ef565b6101ca600480360360408110156103a057600080fd5b506001600160a01b0381358116916020013516610761565b60038054604080516020601f60026000196101006001881615020190951694909404938401819004810282018101909252828152606093909290918301828280156104445780601f1061041957610100808354040283529160200191610444565b820191906000526020600020905b81548152906001019060200180831161042757829003601f168201915b5050505050905090565b600061046261045b61078c565b8484610790565b5060015b92915050565b60025490565b600061047f84848461087c565b6104f58461048b61078c565b6104f085604051806060016040528060288152602001610ea7602891396001600160a01b038a166000908152600160205260408120906104c961078c565b6001600160a01b03168152602081019190915260400160002054919063ffffffff610be016565b610790565b5060019392505050565b60055460ff1690565b600061046261051561078c565b846104f0856001600061052661078c565b6001600160a01b03908116825260208083019390935260409182016000908120918c16815292529020549063ffffffff610c7716565b60086020526000908152604090205460ff1681565b6001600160a01b031660009081526020819052604090205490565b60048054604080516020601f60026000196101006001881615020190951694909404938401819004810282018101909252828152606093909290918301828280156104445780601f1061041957610100808354040283529160200191610444565b60006104626105fa61078c565b846104f085604051806060016040528060258152602001610f18602591396001600061062461078c565b6001600160a01b03908116825260208083019390935260409182016000908120918d1681529252902054919063ffffffff610be016565b60065481565b600061046261066e61078c565b848461087c565b6007546001600160a01b031681565b6007546001600160a01b031633146106cd576040805162461bcd60e51b815260206004820152600760248201526610ba30bc26b0b760c91b604482015290519081900360640190fd5b600780546001600160a01b0319166001600160a01b0392909216919091179055565b6007546001600160a01b03163314610738576040805162461bcd60e51b815260206004820152600760248201526610ba30bc26b0b760c91b604482015290519081900360640190fd5b6001600160a01b039091166000908152600860205260409020805460ff19169115919091179055565b6001600160a01b03918216600090815260016020908152604080832093909416825291909152205490565b3390565b6001600160a01b0383166107d55760405162461bcd60e51b8152600401808060200182810382526024815260200180610ef46024913960400191505060405180910390fd5b6001600160a01b03821661081a5760405162461bcd60e51b8152600401808060200182810382526022815260200180610e3e6022913960400191505060405180910390fd5b6001600160a01b03808416600081815260016020908152604080832094871680845294825291829020859055815185815291517f8c5be1e5ebec7d5bd14f71427d1e84f3dd0314c0f7b2291e5b200ac8c7c3b9259281900390910190a3505050565b6001600160a01b0383166108c15760405162461bcd60e51b8152600401808060200182810382526025815260200180610ecf6025913960400191505060405180910390fd5b6001600160a01b0382166109065760405162461bcd60e51b8152600401808060200182810382526023815260200180610e1b6023913960400191505060405180910390fd5b6001600160a01b03831660009081526008602052604090205460ff168061094557506001600160a01b03821660009081526008602052604090205460ff165b15610a2757610955838383610bdb565b61099881604051806060016040528060268152602001610e60602691396001600160a01b038616600090815260208190526040902054919063ffffffff610be016565b6001600160a01b0380851660009081526020819052604080822093909355908416815220546109cd908263ffffffff610c7716565b6001600160a01b038084166000818152602081815260409182902094909455805185815290519193928716927fddf252ad1be2c89b69c2b068fc378daa952ba7f163c4a11628f55a4df523b3ef92918290030190a3610bdb565b6000610a50612710610a4460065485610cd890919063ffffffff16565b9063ffffffff610d3116565b90506000610a64838363ffffffff610d7316565b9050610a71858583610bdb565b600754610a899086906001600160a01b031684610bdb565b610acc83604051806060016040528060268152602001610e60602691396001600160a01b038816600090815260208190526040902054919063ffffffff610be016565b6001600160a01b038087166000908152602081905260408082209390935590861681522054610b01908263ffffffff610c7716565b6001600160a01b038086166000908152602081905260408082209390935560075490911681522054610b39908363ffffffff610c7716565b6007546001600160a01b0390811660009081526020818152604091829020939093558051848152905187831693928916927fddf252ad1be2c89b69c2b068fc378daa952ba7f163c4a11628f55a4df523b3ef928290030190a36007546040805184815290516001600160a01b03928316928816917fddf252ad1be2c89b69c2b068fc378daa952ba7f163c4a11628f55a4df523b3ef919081900360200190a350505b505050565b60008184841115610c6f5760405162461bcd60e51b81526004018080602001828103825283818151815260200191508051906020019080838360005b83811015610c34578181015183820152602001610c1c565b50505050905090810190601f168015610c615780820380516001836020036101000a031916815260200191505b509250505060405180910390fd5b505050900390565b600082820183811015610cd1576040805162461bcd60e51b815260206004820152601b60248201527f536166654d6174683a206164646974696f6e206f766572666c6f770000000000604482015290519081900360640190fd5b9392505050565b600082610ce757506000610466565b82820282848281610cf457fe5b0414610cd15760405162461bcd60e51b8152600401808060200182810382526021815260200180610e866021913960400191505060405180910390fd5b6000610cd183836040518060400160405280601a81526020017f536166654d6174683a206469766973696f6e206279207a65726f000000000000815250610db5565b6000610cd183836040518060400160405280601e81526020017f536166654d6174683a207375627472616374696f6e206f766572666c6f770000815250610be0565b60008183610e045760405162461bcd60e51b8152602060048201818152835160248401528351909283926044909101919085019080838360008315610c34578181015183820152602001610c1c565b506000838581610e1057fe5b049594505050505056fe45524332303a207472616e7366657220746f20746865207a65726f206164647265737345524332303a20617070726f766520746f20746865207a65726f206164647265737345524332303a207472616e7366657220616d6f756e7420657863656564732062616c616e6365536166654d6174683a206d756c7469706c69636174696f6e206f766572666c6f7745524332303a207472616e7366657220616d6f756e74206578636565647320616c6c6f77616e636545524332303a207472616e736665722066726f6d20746865207a65726f206164647265737345524332303a20617070726f76652066726f6d20746865207a65726f206164647265737345524332303a2064656372656173656420616c6c6f77616e63652062656c6f77207a65726fa2646970667358221220fa26f91e106fea7265b082b2803341c62a8e3fa90fcfe5a641112aa3087abb3264736f6c63430006060033",
  "linkReferences": {},
  "deployedLinkReferences": {}
}